:100000000C9460020C9488020C9488020C94880270
:100010000C9488020C9488020C9488020C94880238
:100020000C9488020C9488020C9488020C946D1431
:100030000C9488020C9488020C9488020C94880218
:100040000C94CB130C9488020C943B140C94151450
:100050000C9488020C9488020C9488020C948802F8
:100060000C94B0120C9488026364696E6F7073759F
:1000700078585B003F065B4F666D7D077F6F000021
:1000800000002300260029005B696E7075745D20F6
:100090000000000000240027002A000000000800E3
:1000A000020100000304070000000000000000221D
:1000B0007D007B226D6F64756C65223A226F7574CA
:1000C000707574222C2274797065223A22726573DD
:1000D000706F6E7365222C22726573756C74223A90
:1000E000226572726F72222C226572726F72223ACE
:1000F0002200227D00222C22616374696F6E223AF5
:1001000022007B226D6F64756C65223A226F7574D4
:10011000707574222C2274797065223A227265738C
:10012000706F6E7365222C22726573756C74223A3F
:10013000226F6B222C22636D64223A2200227D0002
:10014000222C2276657273696F6E223A2200222C6D
:1001500022726F6C65223A22007B226D6F64756C8F
:1001600065223A226F7574707574222C227479702E
:1001700065223A227265616479222C22626F617273
:1001800064223A2200010204081020408001020487
:10019000081020010204081020000000002500289B
:1001A000002B0004040404040404040202020202FA
:1001B00002030303030303207F010100000000008A
:1001C0000000000000005E000000000000060000CB
:1001D00006000000247E24247E240000246B2A2AAA
:1001E0006B1200004626100864620000344A4A542C
:1001F00020500000000000060000000000003C420B
:10020000000000000000423C000000002A1C3E1CD0
:100210002A00000008083E080800000000403000E6
:10022000000000000808080808080000000040005E
:100230000000000040201008040200003C62524A06
:10024000463C000040447E40400000006452525250
:10025000524C000024424A4A4A34000038242222E8
:100260007E2000002E4A4A4A4A3200003C4A4A4A4E
:100270004A300000020262120A060000344A4A4A6A
:100280004A3400000C525252523C0000000024003C
:1002900000000000004024000000000000081422BC
:1002A00000000000141414141414000000002214A0
:1002B000080000000402520A0400000018245A5AE0
:1002C000241800007C121212127C00007E4A4A4A56
:1002D0004A3400003C424242422400007E424242F4
:1002E000423C00007E4A4A4A424200007E0A0A0A14
:1002F000020200003C424252523400007E080808CC
:10030000087E000000427E42000000002040404085
:10031000403E00007E080808146200007E40404015
:10032000404000007E040808047E00007E0408109F
:10033000207E00003C424242423C00007E121212EB
:10034000120C00003C425262423C00007E1212122B
:10035000324C0000244A4A4A4A30000002027E021F
:10036000020000003E404040403E00001E20404051
:10037000201E00007E201010207E0000422418184D
:100380002442000002047804020000004262524A43
:1003900046420000007E42420000000002040810B5
:1003A00020400000000042427E00000000000402E5
:1003B0000400008080808080808080000000020433
:1003C0000000000020545454780000007E48484843
:1003D00030000000384444442800000030484848B9
:1003E0007E000000385454544800000000087C0A85
:1003F0000200000018A4A4A47C0000007E080808E5
:100400007000000000487A400000000040808088B2
:100410007A0000007E1010284400000000427E4058
:10042000000000007C047804780000007C040404D0
:10043000780000003844444438000000FC44444440
:100440003800000038444444FC0000007C080404E8
:1004500004000000485454542400000000043E44AA
:10046000000000003C4040207C0000001C20402098
:100470001C0000001C601C601C00000044281028A8
:10048000440000001CA0A0A07C0000004464544C68
:100490004400000000083641000000000000FF009A
:1004A00000000000004136080000000804040810A5
:1004B0001008000000000000000000002915EA1DDF
:1004C00011241FBECFEFD8E0DEBFCDBF14E0A0E007
:1004D000B1E0EAE8FEE402C005900D92AC36B10747
:1004E000D9F727E0ACE6B4E001C01D92A136B2070F
:1004F000E1F712E0CFE5D2E004C02197FE010E94AF
:100500000B20CE35D107C9F70E9457160C94382717
:100510000C94000080E008951F93CF93DF9300D0E8
:1005200000D01F92CDB7DEB71C8221E02B839A83C7
:100530008983E0910F07F091100711891D82A09126
:100540000F07B0911007E0911307F09114079E0177
:100550002F5F3F4F50964C916FE08FE097E00995E9
:100560008D818F5F8D83811750F30F900F900F90C7
:100570000F900F90DF91CF911F9108959B01DC01A7
:100580001896ED91FC9141E067E109942091C20435
:10059000260F3327331F21323105ECF42091E60476
:1005A000FC0190E080E0243069F082E00895A091A1
:1005B000C2042191AC014E555B4FA40FB52FB11D64
:1005C0002C930196861798F38091C204680F60936C
:1005D000C20480E0089581E0089508958FEF9FEFB1
:1005E00008958FEF9FEF089580919B0490E091957F
:1005F000819591090895CF93DF93CB01EA01642F90
:100600000E94C602CE01DF91CF910895CF93DF9370
:100610001F92CDB7DEB7698361E0CE0101960E94DB
:10062000C60281E090E00F90DF91CF910895833072
:1006300081F028F4813099F08230A9F00895873054
:10064000A9F08830C9F08430B1F4809180008F7DAA
:1006500003C0809180008F7780938000089584B5D7
:100660008F7784BD089584B58F7DFBCF8091B000D6
:100670008F778093B00008958091B0008F7DF9CF7F
:100680001F93CF93DF93282F30E0F901E556FF4FFA
:100690008491F901EB57FE4FD491F901ED55FE4FCE
:1006A000C491CC23A9F0162F81110E941703EC2FBF
:1006B000F0E0EE0FFF1FE756FE4FA591B4918FB704
:1006C000F894EC91111108C0D095DE23DC938FBF14
:1006D000DF91CF911F910895DE2BF8CFCF93DF9359
:1006E00090E0FC01EB57FE4F24918D559E4FFC018D
:1006F00084918823C9F090E0880F991FFC01EF5680
:10070000FF4FA591B491FC01E756FE4FC591D491DE
:1007100061110DC09FB7F8948C91209582238C9322
:100720008881282328839FBFDF91CF91089562306D
:1007300051F49FB7F8943C91822F809583238C933A
:10074000E8812E2BEFCF8FB7F894EC912E2B2C93C2
:100750008FBFEACF3FB7F8948091970490919804A7
:10076000A0919904B0919A0426B5A89B05C02F3F8B
:1007700019F00196A11DB11D3FBFBA2FA92F982FC7
:100780008827BC01CD01620F711D811D911D42E0C2
:10079000660F771F881F991F4A95D1F708950F9309
:1007A0001F93CF93DF93CDB7DEB729970FB6F89499
:1007B000DEBF0FBECDBF80914E0790914F07892BB2
:1007C00009F47CC00E94AA030091540710915507B8
:1007D00020915607309157076017710782079307DA
:1007E00040F4609354077093550780935607909395
:1007F00057070091540710915507209156073091E3
:100800005707601B710B820B930B6C327140810593
:100810009105C0F2F8948091490790914A079A8314
:100820008983E0914E07F0914F07DF011196808197
:10083000898790914507E0915807F0915907809179
:100840005A07992309F445C09081982B9887908185
:10085000809589238F838F818C8388E08B83588553
:100860006F8149853B812C8189819A81508347FD25
:10087000252F3A952083262F39F0441F00C0000011
:100880006083000000C0F2CF38E04D91608300002B
:10089000019761F7F0935907E093580749873B8325
:1008A0002C839A83898378940E94AA0360935407C7
:1008B00070935507809356079093570729960FB664
:1008C000F894DEBF0FBECDBFDF91CF911F910F9186
:1008D00008959081982B98879081809589238F83A4
:1008E0008F818E8388E08D8358856F8149853D8116
:1008F0002E8189819A81508347FD252F00C000C039
:10090000208300C000C000C000C000C060830000A1
:10091000262F3A9541F0441F000000C000C000C0DF
:1009200000C000C0E8CF38E04D9100C0608300C037
:10093000019709F7F0935907E093580749873D83DA
:100940002E83AFCFCF92DF92EF92FF920F931F9340
:10095000CF93DF93EC010E94AA036B017C01CC0EC4
:10096000DD1EE11CF11C0FE110E0CFE3D0E00E949E
:10097000AA036C157D058E059F0578F461E08CE077
:100980000E944003C8010197F1F760E08CE00E94EB
:100990004003CE010197F1F7EACFDF91CF911F918C
:1009A0000F91FF90EF90DF90CF9008952FB7F894BC
:1009B00060919304709194048091950490919604B1
:1009C0002FBF0895AF92BF92CF92DF92EF92FF9226
:1009D0000F931F93CF93DF936C017B018B01040F67
:1009E000151FEB015E01AE18BF08C017D10759F003
:1009F0006991D601ED91FC910190F081E02DC60145
:100A00000995892B79F7C501DF91CF911F910F913E
:100A1000FF90EF90DF90CF90BF90AF900895FC01D2
:100A2000538D448D252F30E0842F90E0821B930B53
:100A3000541710F0CF96089501970895FC01918DF9
:100A4000828D981761F0A28DAE0FBF2FB11D5D96FC
:100A50008C91928D9F5F9F73928F90E008958FEF9E
:100A60009FEF0895FC01918D828D981731F0828D52
:100A7000E80FF11D858D90E008958FEF9FEF0895A9
:100A8000FC01918D228D892F90E0805C9F4F821B0D
:100A900091098F739927089580E995E00E94400598
:100AA00021E0892B09F420E0822F089580E090E076
:100AB000892B29F00E944C0581110C9400000895A7
:100AC000FC01A48DA80FB92FB11DA35ABF4F2C91C3
:100AD000848D90E001968F739927848FA689B789BA
:100AE0002C93A089B1898C91837080648C93938DB1
:100AF000848D981306C00288F389E02D80818F7D54
:100B000080830895EF92FF920F931F93CF93DF930B
:100B1000EC0181E0888F9B8D8C8D98131AC0E88939
:100B2000F989808185FF15C09FB7F894EE89FF8908
:100B30006083E889F98980818370806480839FBFA6
:100B400081E090E0DF91CF911F910F91FF90EF90A6
:100B50000895F62E0B8D10E00F5F1F4F0F731127B6
:100B6000E02E8C8D8E110CC00FB607FCFACFE889F1
:100B7000F989808185FFF5CFCE010E946005F1CF14
:100B8000EB8DEC0FFD2FF11DE35AFF4FF0829FB765
:100B9000F8940B8FEA89FB8980818062CFCF0F9315
:100BA0001F93CF93DF938C01D0E0C0E0F801EC0FEE
:100BB000FD1F6491662341F080E995E00E94820563
:100BC000892B11F02196F2CFCE01DF91CF911F91A9
:100BD0000F910895CF93DF93EC01888D8823B9F0AE
:100BE000AA89BB89E889F9898C9185FD03C0808138
:100BF00086FD0DC00FB607FCF7CF8C9185FFF2CFB5
:100C0000808185FFEDCFCE010E946005E9CFDF91A5
:100C1000CF910895DC011A96ED91FC9130E020E02F
:100C20000994DC011696ED91FC9130E020E040E063
:100C300069E10994DC011696ED91FC9130E020E029
:100C400040E068E109949A01DC011696ED91FC916F
:100C5000462F67E10994EF92FF920F931F93CF9372
:100C6000DF931F92CDB7DEB77C018B01D8016C9169
:100C7000673129F150F46531A0F40F90DF91CF91E5
:100C80001F910F91FF90EF9008956A3118F16E3F18
:100C9000A1F7F8014181498369E2C7010E940A0670
:100CA0000BC0F80141814983D7011696ED91FC9163
:100CB00030E020E0C70109950E5F1F4FD7CFF80144
:100CC00081818983AE014F5F5F4F61E0C7010E9460
:100CD0002306F2CF0F5F1F4FD7011696ED91FC91BF
:100CE00030E020E040E0C7010995C0CF462FDC018D
:100CF0001696ED91FC9130E020E066E10994462FD4
:100D0000DC011696ED91FC9130E020E065E109945C
:100D1000EF92FF920F931F93CF93DF93EC01042F79
:100D200079016D3009F446C050F46B30C9F1693077
:100D300009F49FC06A3009F465C080E05CC06E3081
:100D400009F44BC06F3099F70E941A06F70113811E
:100D5000110F110F110F6C89160F60E4CE010E9464
:100D60007F06612F62956F706061CE010E947F06E1
:100D7000612F6F70CE010E947606F7016481606B6F
:100D8000CE010E947606F701408151816281660F93
:100D9000660F660FCE010E9423060150A1F727C0FF
:100DA0006CE171E0442311F067E171E0CE010E9433
:100DB0002B0620C0411109C060E171E00E942B06A2
:100DC000E881F98182898C8B15C069E071E00E940D
:100DD0002B06E881F9818389F6CF0E941A0661E823
:100DE000CE010E947F06602FCE010E947606CE01C2
:100DF0000E94110681E0DF91CF911F910F91FF902A
:100E0000EF900895EA85FB8530E020E040E068E25D
:100E1000CE010995EE81FF8130E020E040E064E101
:100E2000CE01099541E06BE4CE010E940A06E881FB
:100E3000F981448169E2CE010E940A0640E06BE438
:100E4000CE010E940A06E881F981448169E2CE015F
:100E50000E940A0641E06BE4CE010E940A06E88186
:100E6000F981458169E2CE010E940A0661E271E0E2
:100E70009DCF86E591E09983888382E0A4CFCF93CC
:100E8000DF931F92CDB7DEB76983BE016F5F7F4FDF
:100E90000E94BE020F90DF91CF910895462FDC0192
:100EA0001896ED91FC9130E020E060E20994EF9219
:100EB000FF920F931F93CF93DF938C01C62FD42FF4
:100EC0007901673130F46531B8F4643131F080E094
:100ED0001BC0673101F16A31D0F7D8011896ED9146
:100EE000FC9197014D2F6C2FC801DF91CF911F917D
:100EF0000F91FF90EF90099460E00E944E076D2FD4
:100F0000C8010E943F0781E0DF91CF911F910F91AF
:100F1000FF90EF90089561E00E944E07DECF6623B8
:100F200029F06A3019F0862F90E008958FEF9FEF37
:100F30000895CF93DF93EC01A889B989FD0134911D
:100F400031969491319684911396FD01A491631783
:100F5000A8F1961798F1631B770B8A9FE02D112457
:100F6000E69FC001E79F900D1124280F392F311DF6
:100F700083E0220F331F8A95E1F7C9010496DA0155
:100F8000245F3F4FE889F989E80FF91FE491ED9359
:100F9000019682179307B1F78D89882361F0FA01D2
:100FA0009A01285F3F4F8191DF01119780958C93C3
:100FB0002E173F07C1F7DF91CF910895FA01CA01BB
:100FC00008961192E817F907E1F7E6CF4F925F9282
:100FD0006F927F928F929F92AF92BF92CF92DF9249
:100FE000EF92FF920F931F93CF93DF93CDB7DEB7AE
:100FF0002D970FB6F894DEBF0FBECDBF7C01C62E75
:10100000D42EB22EDC0150968D919C91FC0132962B
:10101000149131960491512E560E040F81E0860FE3
:10102000581608F411E0712CFE0131964F0144244A
:101030004394672CAC2C262DA4016B2DC7010E9474
:101040009907AC86DD864B869A868986D7011496E9
:10105000ED91FC919E01275F3F4F41E06FE0C7019A
:1010600009956394A394A51430F3D394710ED0160C
:1010700000F32D960FB6F894DEBF0FBECDBFDF9103
:10108000CF911F910F91FF90EF90DF90CF90BF9085
:10109000AF909F908F907F906F905F904F9008954A
:1010A000EF92FF920F931F93CF93DF93E82EE0917F
:1010B0001F07F09120073296C491109227078B01E9
:1010C000D0E0F12CF80161918F01E0911107F091CE
:1010D00012078FE097E009958F3F980771F08E3FD8
:1010E0002FEF920779F3282F4E2D6F2D8FE097E089
:1010F0000E94E607FC0EDF5FE5CF8D2FDF91CF91D9
:101100001F910F91FF90EF9008958F929F92AF9251
:10111000BF92CF92DF92EF92FF921F93CF93DF9314
:10112000EC016C32C8F46A3208F040C0683259F100
:10113000693209F448C080E06034C8F16F73FE0181
:10114000E60FF11D868D8F3F89F1603108F06DC08B
:10115000642F0E9440032AC06D3209F458C058F32E
:1011600084EB860F823038F76F73C60FD11D8E8DDA
:1011700062E0411105C060E00E94400361E08E8D95
:101180000E946E0313C07C012EE1E20EF11CD0E040
:10119000F70181917F018F3F31F061E0D03108F09C
:1011A00062E00E946E03DF5FD63191F781E0DF914C
:1011B000CF911F91FF90EF90DF90CF90BF90AF90B5
:1011C0009F908F900895C42ED12CF12CE12C0E9479
:1011D000AA034B015C01C114D104E104F10431F311
:1011E0000E94AA03681979098A099B09683E73401D
:1011F0008105910580F3F1E0CF1AD108E108F108EB
:1012000028EE820E23E0921EA11CB11CE4CF85E0E3
:1012100090E0433010F082E090E0880F991F880F33
:10122000991F05970197F1F7C1CF282F30E0F901F9
:10123000E556FF4F8491F901EB57FE4FF490F90109
:10124000ED55FE4F1491112379F081110E9417037F
:10125000E12FF0E0EE0FFF1FE258FF4FA591B49190
:10126000EC91FE2281E009F480E0898F9FCF1F93EB
:10127000CF93DF93EC01EC89FD8949AD6A3059F4D5
:101280003396E491E40FE9AF18AE81E090E0DF918E
:10129000CF911F910895262F3296149168AD049630
:1012A0000E94E607E8ADE10FE8AFEFCF8F929F9283
:1012B000AF92BF92FF920F931F93CF93DF93FC01E6
:1012C000F0808BE08F1508F44FC0828108E512E0B2
:1012D000081B110987FD1395000F111F000F111F27
:1012E0008181C8E8D0E0C81BD10987FDD395CC0F18
:1012F000DD1FCC0FDD1F4E010D2E000CAA08BB0810
:10130000DB01653B710514F0A4EBB0E09801012E00
:10131000000C440B550B281939094A095B090E9436
:10132000891F24EB30E040E050E00E945F1F820EF6
:10133000931EA41EB51E8C169D062CF0E801801687
:1013400091060CF4E4012297CC0FDD1F2FB7F8941F
:101350008F2D90E0FC01EE0FFF1FE80FF91FE35DFA
:10136000F94FD283C1832FBFDF91CF911F910F918E
:10137000FF90BF90AF909F908F9008951F93CF9351
:10138000DF93EC01162F88818C3008F04EC061E0AD
:10139000812F0E946E038881282F30E0F901EE0F23
:1013A000FF1FE20FF31FE35DF94F1F736081607C45
:1013B000612B608319821A822CE0622F0E94D71F52
:1013C000829FB001112430E020E0AB01420F531F97
:1013D000FA01EE0FFF1FE40FF51FE35DF94F908157
:1013E00096FD16C02F5F3F4F2C30310571F78111EC
:1013F0000FC01092800082E08093810010928500DF
:1014000010928400B19A80916F00826080936F0087
:10141000E8818E2F90E0FC01EE0FFF1FE80FF91F0F
:10142000E35DF94F8081806480838881DF91CF9173
:101430001F9108951F93CF93DF93EC01162F8B819B
:10144000811107C063E070E0CE010E94BE0981E017
:101450008B83612F70E0CE010E9456090E94D60452
:1014600064547D4F8F4F9F4F6E837F83888799870A
:10147000DF91CF911F910895CF92DF92EF92FF926B
:101480000F931F93CF93DF936C01EB017B01E40E6D
:10149000F51E10E000E0CE15DF0561F06991D60180
:1014A000ED91FC910190F081E02DC6010995080FA6
:1014B000191FF1CFC801DF91CF911F910F91FF90BC
:1014C000EF90DF90CF900895089590E080E0089528
:1014D000AF92BF92CF92DF92EF92FF920F931F9342
:1014E000CF93DF93EC01DA01E22F932F2617370712
:1014F00014F4E62F972F4E2F592F4A175B070CF441
:10150000AD0159834883E0914707F0914807309730
:1015100009F46EC0E830F10510F0E8E0F0E0AB014E
:10152000770F660B770BBA01552744278901330FD4
:10153000220B330B402B512B622B732BCD01BB0F96
:10154000AA0BBB0BBA2FA92F982F8827482B592BF2
:101550006A2B7B2BCB01AA27BB27B82E152FDC01CA
:1015600030E020E0E42E809147079091480728174B
:101570003907C0F50E2D80914D07F12EAB2C882335
:1015800071F08A9FE0018B9FD00D1124AD2E819FB9
:10159000E0011124FD2E849FC0011124092FC09168
:1015A000530780914E0790914F07D0915007CD136C
:1015B0002BC0E901CC0FDD1FC20FD31F8C0F9D1F65
:1015C000C0915007C80FD92FD11DA882C0915107D3
:1015D000C80FD92FD11DF882C0915207C80FD92F3B
:1015E000D11D08832F5F3F4FE217F30709F0BBCFF0
:1015F000DF91CF911F910F91FF90EF90DF90CF90EF
:10160000BF90AF900C94CF036901CC0CDD1CCC0CC7
:10161000DD1C8C0D9D1DC80FD92FD11D1882D0CF78
:10162000CF93DF93FC01EB01462F9D2F6F3F710598
:1016300019F014F04FEF90E0242F392F37FF02C03C
:1016400030E020E03183208360E087E00E944003A7
:1016500061E01C161D060CF060E088E0DF91CF9180
:101660000C9440031F93CF93DF93EC01162F8B81D3
:10167000811107C062E070E0CE010E94BE0981E0E6
:101680008B83612F70E0CE010E9456090E94D60420
:1016900064547D4F8F4F9F4F6D837E838F839887D8
:1016A000DF91CF911F91089583E290E00197F1F7C8
:1016B000089561E086E00E946E0360E085E00E948C
:1016C00040030E94540B60E086E00E9440030E94A9
:1016D000540B61E085E00E9440030E94540B61E0DE
:1016E00086E00E9440030C94540BCF93DF93D82FD5
:1016F00061E086E00E946E03C8E060E085E00E9441
:1017000040030E94540B6D2F617086E00E944003DD
:101710000E94540B61E085E00E9440030E94540B3C
:10172000D695C15051F760E085E00E94400362E029
:1017300086E00E946E030E94540B61E085E00E94E7
:1017400040030E94540B60E085E00E9440030E9429
:10175000540B61E086E00E946E0361E086E0DF9159
:10176000CF910C94400361E086E00E946E0361E03B
:1017700086E00E94400361E085E00E9440030E94F1
:10178000540B60E086E00E9440030C94540B0F93CE
:101790001F93CF93DF93162FD42FC22F0E94B30B2A
:1017A00080E40E94750B0E94590B0E94B30B80ECE1
:1017B0000E94750B812F0E94750B8D2F0E94750B57
:1017C0008C2F0E94750B802F0E94750B0E94590B65
:1017D0000E94B30B8FE80E94750BDF91CF911F9190
:1017E0000F910C94590B0F93DC01862F2AE0622F86
:1017F0000E94D71FE82FF0E0EC58FF4F5491E92FDB
:10180000F0E0EC58FF4F3491842F0E94D71FE82F4F
:10181000F0E0EC58FF4F2491E92FF0E0EC58FF4F37
:101820000491432F4068652FCD010E94C70B0F9193
:1018300008950F931F93CF93DF93DC01E0E050E016
:101840002E2F30E089010F5F1F4FCD91DC91119752
:10185000F881FF2309F444C0CE01019611969C93B0
:101860008E93F23209F442C098819C3581F48981CB
:10187000882369F0CE01029611969C938E939981EC
:101880009E36B1F06CF49236A9F09636A9F00417A2
:101890001507DCF6260F371FE9019883EF5FD0CFDD
:1018A0009437E1F0953751F0923789F79DE0EFCF0B
:1018B0009AE0EDCF98E0EBCF9CE0E9CF84E0CD91CA
:1018C000DC9111979881911102C09FE3E0CF21969E
:1018D0001196DC93CE93815091F7F7CF99E0D7CF53
:1018E00080E0DF91CF911F910F910895E60FF72FC0
:1018F000F11D108281E0F5CFDC01ED91FC9120819A
:10190000203211F0293029F43196DC01ED93FC935B
:10191000F3CF0895FC01DB019D91BD01992329F0CE
:1019200081919817C1F380E0089581E00895FC014A
:1019300001900020E9F73197AF01481B590BBC011A
:1019400080E995E00C94E204CF93DF930E94CF05E9
:10195000EC018CE891E00E94970C8C0F9D1FDF91A9
:10196000CF910895CF93DF93D0E0C0E0009719F0B6
:101970000E94970CEC018CE891E00E94970C8C0F70
:101980009D1FDF91CF9108950C94970C89E591E00C
:101990000E94CF058FE891E00E94C40C8EE491E094
:1019A0000E94CF0588E991E00E94C40C80E491E098
:1019B0000E94CF0584EA91E00E94C40C8DE391E07F
:1019C0000C94A40C0F931F93CF93DF938C01EB0126
:1019D00082E091E00E94CF05C8010E94C40C85EF0F
:1019E00090E00E94CF05CE010E94C40C82EF90E0EF
:1019F000DF91CF911F910F910C94A40CCF93DF93A3
:101A0000EC0182EB90E00E94CF05CE010E94C40C55
:101A10008FEA90E0DF91CF910C94A40CCF93DF93E9
:101A2000FC018585968581309105A9F10297B1F178
:101A300085EB91E02789211134C026A1211131C005
:101A40002CEB31E0C589D689A389B4894481411141
:101A50002BC049EA51E03F932F93DF93CF93BF937D
:101A6000AF939F938F935F934F9380EC91E09F93FD
:101A70008F931F9280E88F937F936F930E948221B0
:101A80008DB79EB740960FB6F8949EBF0FBE8DBF20
:101A9000DF91CF91089589EA91E0CCCF80EB91E07E
:101AA000C9CF26E033E0CECF40EB51E0D4CF1F9337
:101AB000CF93DF9385ED8093BC0080919E0490913D
:101AC0009F04A091A004B091A1040796A11DB11D8F
:101AD00023E0B695A795979587952A95D1F72091FC
:101AE000BC0024FD03C01092E60452C040919E0445
:101AF00050919F046091A0047091A104452B462B46
:101B0000472B69F30097A105B10541F02AE22A9518
:101B1000F1F700C00197A109B109E1CF80919D04BF
:101B2000C1E0C0939C04882399F1D091B800109132
:101B3000BA008091BC008A7B8093BC0060E082E1A7
:101B40000E94400360E083E10E9440031092E6049B
:101B5000C093E8041092E70461E082E10E94400330
:101B600061E083E10E9440038091B9008E7F809301
:101B7000B9008091B9008D7F8093B90088E480938B
:101B8000B80085E48093BC001093BA00D093B800ED
:101B9000DF91CF911F910895CF92DF92EF92FF9244
:101BA0000F931F93CF93DF93EC018B0169017A01AF
:101BB0006FE172E0C8010E945521892B69F4C9A226
:101BC000DAA2EBA2FCA2DF91CF911F910F91FF90BF
:101BD000EF90DF90CF9008956AED72E0C8010E9407
:101BE0005521892B29F4CDA2DEA2EFA2F8A6EBCFD6
:101BF00065E272E0C8010E945521892B29F4C9A62B
:101C0000DAA6EBA6FCA6DFCF6AEA72E0C8010E9462
:101C10005521892B29F4CDA6DEA6EFA6F8AAD3CFAD
:101C200067E272E0C8010E945521892B29F4C9AAF4
:101C3000DAAAEBAAFCAAC7CF6DE272E0C8010E9443
:101C40005521892B29F4CDAADEAAEFAAF8AEBBCF85
:101C500063E372E0C8010E945521892B29F4C9AEC3
:101C6000DAAEEBAEFCAEAFCF6AE372E0C8010E9421
:101C70005521892B31F4ED96C882D982EA82FB8204
:101C8000A2CF6FE372E0C8010E945521892B19F49D
:101C9000CF5BDF4FF1CF66E472E0C8010E945521AF
:101CA000892B19F4CB5BDF4FE7CF6BE472E0C801FF
:101CB0000E945521892B09F086CFCF59DF4FDCCF09
:101CC0000F931F93CF93DF93EC01683109F46EC03B
:101CD00058F46431F9F0F901673181F080E0DF9167
:101CE000CF911F910F910895693109F49CC0603222
:101CF000A9F76AE4CE010E940A0656C0442309F4FB
:101D000053C081918EBD00000DB407FEFDCF8EB58E
:101D10004150F4CFE881F9818C859D85AE85BF85E2
:101D2000892B8A2B8B2B41F480859185A285B385E5
:101D30008C879D87AE87BF87418169E4CE010E9471
:101D40000A06CFB7F89480919104811127C0EDEA7B
:101D5000F1E08491EFE8F1E09491E82FF0E0EE0FEC
:101D6000FF1FEF56FF4FA591B491EC91E92321F4A9
:101D700061E08AE00E94400361E08AE00E946E0315
:101D80008CB580618CBD8CB580648CBD61E08DE0CC
:101D90000E946E0361E08BE00E946E0380919104CB
:101DA0008F5F80939104CFBF81E099CFE881F98163
:101DB000E485E15090E0E33020F4F0E0EA5FFE4F8C
:101DC00090810C851D852E853F8540E052E16AE7B4
:101DD00070E080E0041715072607370740F4769572
:101DE0006795579547958F5F8630A1F787E09C7080
:101DF0009065282F2695922B809581709CBD8DBD76
:101E0000E881F981408169E4CE010E940A06A88137
:101E1000B981EA85FB8530E020E012964C916CE2B6
:101E2000CE010995C1CFA881B981EA85FB8530E053
:101E300020E013964C916CE20995E881F98141818B
:101E400069E458CFDF92EF92FF920F931F93CF93E5
:101E5000DF93CDB7DEB761970FB6F894DEBF0FBE44
:101E6000CDBFFC012081222309F440C06830F0F589
:101E7000DE0111969E012F5E3F4FFD01DA2EEB2E03
:101E800070E27193E217F307E1F7198AFA014F5EE6
:101E90005F4F2191222329F0E417F50711F02D93CC
:101EA000F8CFF62E8C01F1E16F9F000D111D11246A
:101EB0000F5F1F4F40E150E0B8018D2D9E2D0E9415
:101EC0003621892B99F080E1ED2DFE2DD80101906E
:101ED0000D928A95E1F78FE897E09093120780932F
:101EE00011076D2D7E2D8F2D0E94500861960FB623
:101EF000F894DEBF0FBECDBFDF91CF911F910F9140
:101F0000FF90EF90DF900895AF92BF92CF92DF9253
:101F1000EF92FF920F931F93CF93DF93EC018B010E
:101F20007B012FEFE21AF20A60E572E0C7010E941E
:101F30005521892BE1F4035F1F4F60EB71E0C8016D
:101F40000E945521892B41F481E08C836AE5CE0102
:101F50000E94320B81E0A7C165E572E0C8010E94D2
:101F60005521892B09F0D4C21C8260E0F0CF6BE5CB
:101F700072E0C7010E945521892B61F5035F1F4F55
:101F800060EB71E0C8010E945521892B51F482E079
:101F900090E09E878D8768E7CE0109960E941A0A15
:101FA000D9CF65E572E0C8010E945521892B31F433
:101FB00081E090E09E878D8760E0EECF65EB71E079
:101FC000C8010E945521892B09F0A2C21E861D86D8
:101FD0006DE2E2CF62E672E0C7010E945521892BD3
:101FE000B9F578018DE0E80EF11C66E672E0C701F4
:101FF0000E945521892B49F4D80191966D917C91CD
:10200000CE0143960E94100BA5CF66E073E0C70196
:102010000E945521892B39F060E772E0C7010E94C8
:102020005521892B19F46FEF70E0EACF6CEB71E06A
:10203000C7010E945521892B41F065E772E0C70175
:102040000E945521892B09F063C270E060E0D8CF6F
:102050006AE772E0C7010E945521892B09F0B4C0DC
:102060007801BDE0EB0EF11C6CEB71E0C7010E9442
:102070005521892B89F41E8A1D8A40914907509168
:102080004A0770E060E080914E0790914F070E94F0
:1020900043210E94CF035ECF60E872E0C7010E9437
:1020A0005521892BA1F4F80161A172A16F3F71053F
:1020B00019F014F06FEF70E077FF02C070E060E09D
:1020C0009B01AB01CE0145960E94680A43CF66E8AA
:1020D00072E0C7010E945521892B39F430E020E0DD
:1020E00050E040E06FEF70E0EDCF6AE872E0C701CA
:1020F0000E94552130E020E04FEF50E0892B09F499
:1021000060C060E972E0C7010E9455212FEF30E006
:1021100050E040E0892B09F454C065E972E0C70142
:102120000E945521892B29F430E020E044EB50E057
:10213000D9CF6CE972E0C7010E945521892B39F48F
:102140002FEF30E050E040E060EA70E0BBCF63EAA0
:1021500072E0C7010E9455212FEF30E044EB50E0C0
:10216000892B79F168EA72E0C7010E945521892B19
:1021700009F0CEC1D8019D962D913C912F3F31059C
:1021800019F014F02FEF30E037FF02C030E020E00C
:10219000F80141A552A54F3F510519F014F04FEF3A
:1021A00050E057FF02C050E040E0D80195966D9195
:1021B0007C916F3F710519F014F06FEF70E077FFBD
:1021C00081CF70E060E07ECF6CEA72E0C7010E94D0
:1021D0005521892B09F072C07801BDE0EB0EF11C8E
:1021E00066E073E0C7010E945521892B41F41EA2CD
:1021F00081E08F8B60E089E00E944003ABCE6CEB06
:1022000071E0C7010E945521892B21F41EA21F8A6B
:1022100061E0F1CF63EB72E0C7010E945521892B89
:1022200009F076C1F80181A992A9181619060CF0D7
:1022300091CED80151AD42AD33AD24ADF5A9D696BE
:10224000EC91D697D7967C91D797D8966C911F8AA8
:10225000998F888F8F2F9E2FA72FB62F8E319105A4
:10226000A105B10520F48EE190E0A0E0B0E08A8FF6
:102270009B8FAC8FBD8F852F942FA32FB22F8E31C4
:102280009105A105B10520F48EE190E0A0E0B0E059
:102290008E8F9F8FA8A3B9A381E08EA31FA21AA23D
:1022A0001BA21CA21DA2DF91CF911F910F91FF9045
:1022B000EF90DF90CF90BF90AF90089568EB72E001
:1022C000C7010E945521892B09F0A1C07801BDE00A
:1022D000EB0EF11C60EC72E0C7010E945521892BC6
:1022E000D1F4F80165AD683108F034CEEF5BFF4FF3
:1022F00040814C3308F02ECE68A749A781E08AA719
:10230000CE0188960E94F30B0E94D6046BA77CA78F
:102310008DA79EA71FCE6AEC72E0C7010E945521CF
:10232000892B09F064C07E01F8E2EF0EF11CD801A0
:1023300091968D919C911AA697FF29C0CC27DD27F5
:10234000C81BD90B89319C4F14F4C7EED3E02AE0A7
:1023500030E0CE01B9010E94F71FFC01EC58FF4F9D
:102360000491CB01B9010E94F71FFC01EC58FF4F0B
:102370002491CE0164E670E00E94F71FFB01EC5847
:10238000FF4F449160E4C7010E94C70BE3CDEC010D
:102390008031974214F0CFE0D7E22AE0C22ED12C50
:1023A000CE01B6010E94F71FFC01EC58FF4F0491CB
:1023B000CB01B6010E94F71FFC01EC58FF4F24919E
:1023C000CE0164E670E00E94F71FCB01B6010E94C7
:1023D000F71FFC01EC58FF4F4491CE0168EE73E00B
:1023E0000E94F71F6C587F4FFB016491CCCF66EDC4
:1023F00072E0C7010E945521892B09F089C01AA6F5
:1024000000E020E040E060E0CE018896BDCF6CEDBA
:1024100072E0C7010E945521892B59F57801FDE032
:10242000EF0EF11C61EE72E0C7010E945521892B6D
:1024300061F4A801475B5F4FF801EB5BFF4F6081E0
:10244000CE018F960E94220F85CD66ED72E0C70106
:102450000E945521892B09F05BC0AF9610E04EE831
:1024600051E0612FCE010E94220F1F5F1830B9F793
:1024700071CD6BEE72E0C7010E945521892B09F0E6
:1024800047C0E8012D966EEE72E0CE010E94552104
:10249000892B71F5F801EF59FF4FC080D180E280A0
:1024A000F38088E293E20E94A2048BE496E4019711
:1024B000F1F7C0E20BEB18E093E6A92E9AE1B92EF2
:1024C00080E392E0F7FE10C00E94A204C5010197CC
:1024D000F1F7CC0CDD1CEE1CFF1CC15089F780E32A
:1024E00092E00E94A20436CD0E94A204C801EFCF60
:1024F00067EF72E0CE010E945521892B49F488E2F2
:1025000093E20E94A20483E293E20197F1F7E7CFFE
:1025100080E0C9CEEF92FF920F931F93CF93DF938A
:102520007C01EB0109900020E9F72197C61BD70B2E
:10253000FC0100811181AE01C8010E946521892B37
:1025400069F4C00FD11FF701D183C08381E0DF910F
:10255000CF911F910F91FF90EF90089580E0F7CFFA
:102560001F920F920FB60F9211242F933F934F9308
:102570005F936F937F938F939F93AF93BF93EF93EB
:10258000FF938091B900887F803609F44AC0F0F546
:10259000883209F4A5C018F5803109F499C0B8F45F
:1025A000882309F4F5C0883009F492C0FF91EF91B7
:1025B000BF91AF919F918F917F916F915F914F915B
:1025C0003F912F910F900FBE0F901F90189588315B
:1025D00009F486C0803251F78093E50414C080343A
:1025E00009F49BC040F48033B9F38833F9F6809343
:1025F000E50485ECAEC0803509F483C0883509F464
:1026000094C0883499F60E94570DD0CF883909F4C8
:102610008AC038F5883729F050F4883611F08037B1
:1026200029F683E08093E6041092E40455C08838CC
:1026300009F479C0803919F0803809F0B7CF80915A
:10264000E404803208F06FC0E091E40481E08E0F72
:102650008093E4048091BB00F0E0EC53FB4F808357
:102660003BC0803B39F0D0F4803A09F477C0883A17
:1026700009F09CCF84E08093E6041092C30410928A
:10268000C204F0E0E0E009958091C20481110FC01E
:1026900081E08093C2041092A20409C0803C09F436
:1026A000A8CF883C09F4A5CF883B09F07FCFE09103
:1026B000C30481E08E0F8093C304F0E0EE55FB4F1E
:1026C00080818093BB009091C3048091C20429C093
:1026D00080910B058093BB0085EC8093BC0066CF96
:1026E00090910A0580910905981758F5E0910A051F
:1026F00081E08E0F80930A05F0E0E751FB4F808167
:10270000E9CFE0910A0581E08E0F80930A05809160
:10271000BB00F0E0E751FB4F808390910A05809168
:1027200009059817C8F285E8D8CFE0910A0581E03D
:102730008E0F80930A058091BB00F0E0E751FB4FBC
:1027400080838091E80481115ECF81E08093E7046B
:1027500084EA8093BC001092E60428CF85EC809335
:10276000BC001092E6048091E404803230F4E091E1
:10277000E404F0E0EC53FB4F10826091E40470E05D
:1027800084EC94E0F0E0E0E009951092E4040ECFD0
:102790001092E50438CF1F920F920FB60F921124BA
:1027A0002F933F938F939F93AF93BF938091930405
:1027B00090919404A0919504B09196043091920464
:1027C00023E0230F2D3758F50196A11DB11D20934D
:1027D00092048093930490939404A0939504B093EF
:1027E00096048091970490919804A0919904B091D7
:1027F0009A040196A11DB11D8093970490939804AB
:10280000A0939904B0939A04BF91AF919F918F9137
:102810003F912F910F900FBE0F901F90189526E8B3
:10282000230F0296A11DB11DD2CF1F920F920FB69A
:102830000F9211242F933F934F935F936F937F9346
:102840008F939F93AF93BF93EF93FF9380E995E0AE
:102850000E946005FF91EF91BF91AF919F918F9181
:102860007F916F915F914F913F912F910F900FBE8C
:102870000F901F9018951F920F920FB60F92112470
:102880002F938F939F93EF93FF93E091A005F09187
:10289000A1058081E091A605F091A70582FD1BC0EE
:1028A00090818091A9058F5F8F732091AA0582176F
:1028B00041F0E091A905F0E0E057FA4F958F809341
:1028C000A905FF91EF919F918F912F910F900FBECE
:1028D0000F901F9018958081F4CF1F920F920FB622
:1028E0000F9211242F933F934F935F936F937F9396
:1028F0008F939F93AF93BF93CF93DF93EF93FF9308
:1029000080919004C0915106D0E087FF24C01092BE
:10291000850010928400809190048F5F80939004D2
:1029200080919004082E000C990B8C179D0724F4BD
:10293000809190048C30C4F1809184009091850046
:10294000049680349C4908F47AC080918400909168
:102950008500049676C080919004082E000C990B97
:102960008C179D07C4F6E09190048E2FEE0F990B03
:10297000FC01EE0FFF1FE80FF91FE35DF94F8081A7
:1029800086FFC9CFE09190048E2FEE0F990BFC01CA
:10299000EE0FFF1FE80FF91FE35DF94F808160E044
:1029A0008F730E944003B7CF20918400309185003F
:1029B000E09190048E2FEE0F990BFC01EE0FFF1F9C
:1029C000E80FF91FE35DF94F81819281820F931F18
:1029D0009093890080938800E09190048E2FEE0FF1
:1029E000990BFC01EE0FFF1FE80FF91FE35DF94F94
:1029F000808186FF11C0E09190048E2FEE0F990B1D
:102A0000FC01EE0FFF1FE80FF91FE35DF94F808116
:102A100061E08F730E944003FF91EF91DF91CF91AE
:102A2000BF91AF919F918F917F916F915F914F91E6
:102A30003F912F910F900FBE0F901F90189580E43B
:102A40009CE990938900809388008FEF8093900495
:102A5000E3CF109293051092920588EE93E0A0E0E8
:102A6000B0E08093940590939505A0939605B0935C
:102A7000970582E791E0909391058093900585EC0E
:102A800090E090939D0580939C0584EC90E090935A
:102A90009F0580939E0580EC90E09093A105809324
:102AA000A00581EC90E09093A3058093A20582ECB1
:102AB00090E09093A5058093A40586EC90E0909318
:102AC000A7058093A6051092A9051092AA05109259
:102AD000AB051092AC05809151068C3008F0D6C041
:102AE00091E0980F909351068093520690E0FC017C
:102AF000EE0FFF1FE80FF91FE35DF94F88EB9BE036
:102B000092838183809151068C3008F0C3C091E09C
:102B1000980F9093510680935B0690E0FC01EE0FB6
:102B2000FF1FE80FF91FE35DF94F88EB9BE09283ED
:102B3000818310920E0710920D0710924307109296
:102B4000440784E891E090930C0780930B07109260
:102B5000100710920F071092240710922707109267
:102B60001B0710921C0710921D0710921E078FEF73
:102B70008093250780932907EDE2F7E083E497E04F
:102B80002FEF21938E179F07E1F788E896E0909347
:102B900014078093130787E597E0909316078093B7
:102BA000150780E69EE0909318078093170785E845
:102BB00098E090931A078093190730E020E040E0F6
:102BC00069E08FE097E00E9488068AE080933607EC
:102BD0008EE0809337078FE0809338071092460786
:102BE00010924D07109254071092550710925607F5
:102BF0001092570781E080935307809350071092FB
:102C0000510792E0909352078093450788E190E046
:102C100090934A07809349070E94112090934F0791
:102C200080934E07009709F439C028E1FC01119206
:102C30002A95E9F788E090E090934807809347074A
:102C400084E090E090934C0780934B078091460777
:102C5000882341F061E084E00E946E0360E084E03C
:102C60000E944003E7EAF1E0E491F0E0EE0FFF1F7D
:102C7000E756FE4F8591949190935907809358079A
:102C8000E9E8F1E0E491E0935A0708958FEF80932B
:102C9000520638CF8FEF80935B064BCF10924A07D6
:102CA000109249071092480710924707C9CFCF9357
:102CB000DF93CDB7DEB7C253D1400FB6F894DEBF75
:102CC0000FBECDBF789484B5826084BD84B5816029
:102CD00084BD85B5826085BD85B5816085BD8091E7
:102CE0006E00816080936E0010928100809181005F
:102CF0008260809381008091810081608093810057
:102D0000809180008160809380008091B100846018
:102D10008093B1008091B00081608093B000809179
:102D20007A00846080937A0080917A008260809338
:102D30007A0080917A00816080937A0080917A0095
:102D4000806880937A001092C1001092550610920C
:102D50005606109257061092580610925906109275
:102D60005A0610925E061092600610925F0610924C
:102D7000610610926206109263061092640661E08A
:102D800088E00E946E0361E087E00E946E0360E0CD
:102D900088E00E94400360E087E00E9440031092B8
:102DA000660610926506109268061092670680917A
:102DB0004B0790914C0797FD2EC061E00E946E0377
:102DC00060E080914B070E94400381E080934607BA
:102DD00060914D0720914E0730914F076D3321F1DF
:102DE0006150E1F070E08FEF9CE30E94E31FF90176
:102DF0004091490750914A07CF01821B930B8417DA
:102E0000950778F44081469FC001479F900D11249B
:102E100090833196EDCF10924607DACF70E060E0F4
:102E2000E6CF8DE380934D071092680610926706F7
:102E30004091490750914A0770E060E080914E0749
:102E400090914F070E9443210E94CF0361E089E0E7
:102E50000E946E03109269061092780610926B061B
:102E600010926A0661E089E00E94400361E085E01B
:102E70000E946E0361E086E00E946E0361E085E0DF
:102E80000E94400361E086E00E94400310927C06AD
:102E900010927D0610927E0610927F061092800698
:102EA00000E020E040E060E08AE796E00E94C70B87
:102EB0001092810648E850E060E270E082E896E017
:102EC0000E944321109292061092A3061092B4061B
:102ED0001092C5061092D6061092E7061092F806D8
:102EE00010920907E0911307F091140730E020E0F9
:102EF00040E06AE08FE097E00995CE0101963C0141
:102F000088E0D3011D928A95E9F7C3010E948C02E3
:102F1000E0911307F091140730E020E040E06BE00F
:102F20008FE097E0099587EB91E0909320078093DD
:102F30001F0781E08093810610E04EE851E0612F89
:102F400081E896E00E94220F1F5F1830B1F761E020
:102F50008CE00E946E0360E08CE00E94400382E5FA
:102F600096E090930D0580930C0510928F05E091EB
:102F7000A005F091A10582E08083E0919C05F0918D
:102F80009D051082E0919E05F0919F0580E1808370
:102F90001092A805E091A405F091A50586E0808334
:102FA000E091A205F091A305808180618083E0918A
:102FB000A205F091A305808188608083E091A2053D
:102FC000F091A305808180688083E091A205F09153
:102FD000A30580818F7D80830E94D6040E94C60C49
:102FE0002E01B1E84B0E511C6E01E6EECE0ED11C47
:102FF000C6010296CF5CDE4F99838883C153D140CE
:1030000012019DE0290E311CD2011196C15DDE4FE7
:10301000B983A883CF52D14080E995E00E94400552
:10302000892B09F4CEC480E995E00E941E05909199
:103030008F058A3019F08D3009F0B6C4992361F3F9
:10304000092F10E0F801E45FFA4F138280E040E0BE
:1030500062E2E42FF0E0E45FFA4F8917B0F5282F21
:1030600030E0D901A45FBA4F13965C9113972E5F9D
:103070003F4F4F5F2017310734F5523E81F41496CD
:103080007C91703801F5245F3A4FD90113962C9149
:103090002C592230C0F463838E5F8F5FDACF5F3E9E
:1030A00091F414967C917C3B71F4245F3A4FD901E2
:1030B00013962C912A3929F02C3829F42CE22383F9
:1030C000EBCF2AE3FCCF5383E8CF138210928F0516
:1030D00085E6F20111928A95E9F7812C912C540131
:1030E0008394D201D1968D929D92AD92BC92D49749
:1030F00058EC852E912CA12CB12CD5968D929D92B9
:10310000AD92BC92D897F20181AE92AEA3AEB4AEAE
:103110007E01FAEDEF1AFEEFFF0A8FE095E0D7018E
:103120008D939C93C7010E947C0CD701ED91FC917B
:10313000119780818B37D9F43196ED93FC9311E090
:10314000C7010E947C0CD701ED91FC911197808101
:103150008D3731F53196ED93FC93C7010E947C0CBD
:10316000D701ED91FC918081882309F4BEC04FE323
:1031700050E06FE075E0C6010E947321F60117AEC2
:1031800090E0F601E90FF11D8081882309F4DBC08E
:103190002FE9280F2A3110F4805280839F5FF1CFEE
:1031A000111108C08C3219F73196ED93FC93C701C9
:1031B0000E947C0CD701ED91FC91119780818232A5
:1031C000B1F63196ED93FC934CE0B601C7010E9435
:1031D000190C882361F2C7010E947C0CD701ED9184
:1031E000FC91119780818A3311F63196ED93FC930F
:1031F000C7010E947C0CF70180819181DC012C9138
:103200002232C9F501969183808348E1B301C70159
:103210000E94190C882309F4AACF6EEF72E0C60150
:103220000E945521892B69F44BE050E0B301C15D48
:10323000DE4F88819981CF52D1400E94732110E0E6
:103240007FCF62E073E0C6010E945521892B29F4EB
:1032500043E150E0B301C101F0CF66EE72E0C60178
:103260000E945521892B59F747E150E0B301CE0167
:1032700086539F4FE2CF2D3219F020532A30B8F4F5
:103280004AE050E0B3010E94FA1D9B01AC01898124
:103290009A81F701608171818617970709F467CFDA
:1032A00091838083B601C2010E94CC0DC8CF69E032
:1032B00073E0C7010E948A1221E030E040E050E054
:1032C0008111F0CF6EE073E0C7010E948A1288235B
:1032D00021F020E030E0A901E5CF64E173E0C7010F
:1032E0000E948A128111F5CF42CFD20111968C91A2
:1032F0001197882309F43BCF1D968C911D97882345
:1033000009F435CF81E08C9369E173E0C15DDE4F54
:1033100088819981CF52D1400E945521892B09F48F
:103320002EC3B20180910C0590910D050E94840F6F
:10333000882309F434C3B101C15DDE4F88819981CE
:10334000CF52D1406AC06BEE73E0C6010E948A0C76
:103350008823E1F0D60112968C91CF5CDE4F088174
:103360001981C153D140882309F4FCC263E273E0A0
:10337000C8010E945521892BA1F4B30180910C054D
:1033800090910D050E940E0DC301F6C260E273E03C
:10339000C6010E948A0C8111DDCFF6018081860171
:1033A000E2CF6AE273E0C8010E945521892B19F42B
:1033B0000E94C60C31CE85E6D3011D928A95E9F7AD
:1033C0006EE273E0C8010E94552160E572E0892B2E
:1033D00081F168E373E0C8010E945521892B01F552
:1033E00060E572E0CE0102960E945E2165E572E022
:1033F000CE010E960E945E2181E08983B301809107
:103400000C0590910D050E94840F882309F4AAC22F
:10341000BE01625F7F4FCE0102960E94E20CFCCD9E
:1034200063E473E0C8010E945521892B49F46BE5E0
:1034300072E0CE0102960E945E2160EB71E0D8CF6F
:103440006FE473E0C8010E9455216BE572E0892B9F
:1034500049F26CE573E0C8010E945521892B49F4BB
:103460006BE572E0CE0102960E945E2165EB71E091
:10347000BFCF6AE673E0C8010E94552162E672E0A0
:10348000892B09F430C161E773E0C8010E9455211E
:1034900062E672E0892B09F436C169E773E0C8017E
:1034A0000E948A0C8823A9F062E672E0CE0102969F
:1034B0000E945E2166E672E0CE010E960E945E21B9
:1034C000C80104960E94E51E6AA37BA38CA39DA35A
:1034D00093CF6EE773E0C8010E945521892B39F024
:1034E00067E873E0C8010E945521892BA9F46AE7B7
:1034F00072E0CE0102960E945E2160E872E0CE0189
:103500000E960E945E218FEF90E0A0E0B0E08AA3CB
:103510009BA3ACA3BDA370CF63E973E0C8010E9475
:1035200055216AE772E0892B09F4EDC06DE973E07B
:10353000C8010E945521892B49F46AE772E0CE0147
:1035400002960E945E2166E872E052CF67EA73E05D
:10355000C8010E945521892B49F46AE772E0CE0127
:1035600002960E945E216AE872E042CF63EB73E04C
:10357000C8010E945521892B49F46AE772E0CE0107
:1035800002960E945E2160E972E032CF6EEB73E03A
:10359000C8010E945521892B49F46AE772E0CE01E7
:1035A00002960E945E2165E972E022CF6BEC73E027
:1035B000C8010E945521892B49F46AE772E0CE01C7
:1035C00002960E945E216CE972E012CF68ED73E012
:1035D000C8010E945521892B49F46AE772E0CE01A7
:1035E00002960E945E2163EA72E002CF63EE73E00E
:1035F000C8010E948A0C882309F456C06AE772E069
:10360000CE0102960E945E2168EA72E0CE010E961B
:103610000E945E214E01B3ED8B1ABEEF9B0AF401AE
:10362000118210825E01F5EDAF1AFEEFBF0AD501DF
:103630001D921C92F70111821082FF92EF92BF92AD
:10364000AF929F928F928EEE93E09F938F93065F3F
:103650001F4F1F930F930E94B221D4018D919C9113
:10366000092E000CAA0BBB0B8EA39FA3A8A7B9A77A
:10367000F50180819181092E000CAA0BBB0B8AA752
:103680009BA7ACA7BDA7D7018D919C91092E000CDB
:10369000AA0BBB0B8EA79FA7A8ABB9AB0FB6F8942C
:1036A000DEBF0FBECDBFA8CE67EF73E0C8010E949A
:1036B0008A0C882379F06AE772E0CE0102960E94B4
:1036C0005E2160E872E0CE010E960E945E21C80184
:1036D0000696F8CE6EEF73E0C8010E945521892B43
:1036E00049F46CEA72E0CE0102960E945E2166E027
:1036F00073E07ECE68E074E0C8010E945521892BFA
:1037000049F46CEA72E0CE0102960E945E216CEBF5
:1037100071E06ECE63E174E0C8010E948A0C8823D8
:1037200009F455C06CEA72E0CE0102960E945E2157
:1037300063EB72E0CE010E960E945E214E01F3ED26
:103740008F1AFEEF9F0A81E090E0D4018D939C9345
:103750005E01B5EDAB1ABEEFBB0A88EC90E0F50157
:1037600091838083D7018D939C93FF92EF92BF92B8
:10377000AF929F928F9280E294E09F938F93045F29
:103780001F4F1F930F930E94B221F40180819181FA
:10379000092E000CAA0BBB0B8AAB9BABACABBDAB31
:1037A000D5018D919C91092E000CAA0BBB0B8EAB01
:1037B0009FABA8AFB9AFF70180819181092E000CB2
:1037C000AA0BBB0B8AAF9BAFACAFBDAF67CF69E2B3
:1037D00074E0C8010E948A0C882309F47EC085E049
:1037E000D7011D928A95E9F7B8016B5F7F4F44E0DE
:1037F00050E0C7010E947321F70101900020E9F712
:10380000CF0105978E159F0509F0ACC0D7018C90AC
:10381000082C000C9908B0E38B1A9108EAE08E1688
:10382000910408F09FC0D7011196AC900A2C000CAF
:10383000BB08B0E3AB1AB108EAE0AE16B10408F079
:1038400091C0D7011296EC900E2C000CFF08B0E34B
:10385000EB1AF108EAE0EE16F10408F083C0C75D48
:10386000DE4F0881C952D140002E000C110B0053CD
:1038700011090A30110508F075C068EB72E0CE013D
:1038800002960E945E2160EC72E0CE010E960E94CC
:103890005E212AE0289DC001299D900D11248A0DEA
:1038A0009B1D092E000CAA0BBB0B22968CAF9DAF63
:1038B000AEAFBFAF22972E9DC0012F9D900D11245A
:1038C000080F191F012E000C220B330B26960CAF8C
:1038D0001DAF2EAF3FAF26978FCD6FE274E0C801CA
:1038E0000E945521892B49F46CED72E0CE010296BD
:1038F0000E945E2166ED72E07BCD6AE374E0C80150
:103900000E948A0C882371F16CED72E0CE01029660
:103910000E945E2161EE72E0CE010E960E945E2151
:10392000065F1F4FC8010E94E51E2A966CAF7DAF4F
:103930008EAF9FAF2A976AE370E0C8010E944A21C8
:10394000009781F08C199D09BC01605F7A4F47E1B7
:1039500050E0CE01865B9F4F0E947321A2961FAE5E
:10396000A2974ACD85E494E00E94FE0C88E890E09E
:103970000E94CF058FE095E00E94B20C4DCB61E52F
:1039800074E0C1010E945521892B09F4F6CC68E549
:1039900074E0C1010E945521892B09F409CD8CE501
:1039A00094E00E94FE0C38CB9F3708F035CB21E025
:1039B000290F20938F05E92FF0E0E45FFA4F83830E
:1039C0002BCB80915506882399F1809157069091D1
:1039D0005806A0915906B0915A06892B8A2B8B2B39
:1039E00039F10E94D6040091570610915806209193
:1039F000590630915A066017710782079307C0F085
:103A0000E09152068E2F90E0FC01EE0FFF1FE80FB1
:103A1000F91FE35DF94F80818F7B808310925506FB
:103A200010925706109258061092590610925A0694
:103A300080915E06882399F18091610690916206DB
:103A4000A0916306B0916406892B8A2B8B2B39F1E8
:103A50000E94D604009161061091620620916306CF
:103A6000309164066017710782079307C0F0E091F8
:103A70005B068E2F90E0FC01EE0FFF1FE80FF91F91
:103A8000E35DF94F80818F7B808310925E061092F8
:103A9000610610926206109263061092640680918D
:103AA00078068823B1F180916A0690916B06892B84
:103AB00081F10E94D6044B015C01809174069091C3
:103AC0007506A0917606B091770688169906AA0623
:103AD000BB06F8F080917906811153C060E089E05F
:103AE0000E94400381E08093790680916C0690915A
:103AF0006D06A0916E06B0916F06880D991DAA1DE6
:103B0000BB1D8093740690937506A0937606B093C0
:103B1000770680917C06882339F10E94D6040091B3
:103B20007D0610917E0620917F06309180064B0124
:103B30005C01801A910AA20AB30A95018401083E29
:103B400013402105310580F060937D0670937E0659
:103B500080937F069093800640917B0660917A0661
:103B60008AE796E00E94F30B80E090E0892B09F44D
:103B70004BCA0E944C05882309F446CA0E940000E3
:103B800043CA61E089E00E94400310927906809167
:103B90006A0690916B06019790936B0680936A0674
:103BA0004091700650917106609172067091730693
:103BB000840E951EA61EB71E8092740690927506FE
:103BC000A0927606B0927706892B09F0A2CF1092C8
:103BD00078069FCF80914E0790914F070E94AD20AD
:103BE00080914B0790914C0797FD03C060E00C94C7
:103BF0006E030895B0E0A0E0E0E0FEE10C94921FB7
:103C00005C016B017A016115710519F0FB0191836B
:103C10008083E114F10449F0C7010297839728F0EB
:103C200060E070E0CB019CC05E01E5012196F501EA
:103C30001081812F90E00E940C1F892BA9F71D3263
:103C400009F056C02196F501118101E0E114F1045B
:103C500009F4AEC0F0E1EF16F10409F08EC01033A4
:103C600041F488818F7D883509F083C019812296BF
:103C70000260E0E1EE2EF12C88248A94982CA82C86
:103C8000FFE0BF2E20E060E070E0CB0127010F2CA9
:103C9000000C66087708FE0150ED352E310E39E034
:103CA000331538F43FEB310F3A31A0F549EC342E9F
:103CB000310E3E141F04BCF52F3FB9F0861697064F
:103CC000A806B90670F1A30192010E942D1F232DB1
:103CD00030E050E040E0620F731F841F951F6217B1
:103CE000730784079507E8F021E021961081D3CF70
:103CF0001B3221F4E5012296F501118100E0A6CFE7
:103D000078E0E72EF12C88248A94982CA82C6FE177
:103D1000B62EB8CF3FE9310F3A3128F439EA332EC5
:103D2000C7CF2FEFE2CFC114D10431F02223E9F045
:103D30002197F601D183C08300FF07C0909580953D
:103D4000709561957F4F8F4F9F4F2F3F49F482E2CF
:103D500090E090935C0780935B076FEF7FEFCB0160
:103D6000CDB7DEB7E1E10C94AE1F01FFE5CF22979E
:103D7000E0CF10E3E114F10419F23AE0E316F104A4
:103D8000E9F080E1E816F10409F473CFE8E0EE16FB
:103D9000F10409F4B8CF6FEF7FEFCB0197010F2C3F
:103DA000000C440B550B0E943D1F49015A016ACF7C
:103DB000103309F456CF9AE0E92EF12C89E9882EC8
:103DC000982CA82C89E1B82E5DCF1F93FC01992770
:103DD0008827BC01E89411911032E9F3193010F0F2
:103DE0001E30C8F31B3251F01D3249F4689406C0EE
:103DF0000E94151F610F711D811D911D119110539E
:103E00001A30B0F33EF490958095709561957F4F90
:103E10008F4F9F4F1F91089591110C942A1F80324C
:103E200019F089508550C8F70895592F482F372F1A
:103E3000262F660F771F881F991F660F771F881F11
:103E4000991F620F731F841F951F660F771F881FAE
:103E5000991F0895992788270895DB018F939F93D1
:103E60000E947E1FBF91AF91A29F800D911DA39FC5
:103E7000900DB29F900D11240895A1E21A2EAA1B55
:103E8000BB1BFD010DC0AA1FBB1FEE1FFF1FA2170A
:103E9000B307E407F50720F0A21BB30BE40BF50B07
:103EA000661F771F881F991F1A9469F76095709590
:103EB000809590959B01AC01BD01CF010895052E21
:103EC00097FB1EF400940E94761F57FD07D00E94B6
:103ED0003D1F07FC03D04EF40C94761F509540957F
:103EE000309521953F4F4F4F5F4F089590958095A6
:103EF000709561957F4F8F4F9F4F08950E94C81F07
:103F0000A59F900DB49F900DA49F800D911D11242D
:103F10000895B7FF0C947E1F0E947E1F821B930B97
:103F200008952F923F924F925F926F927F928F925D
:103F30009F92AF92BF92CF92DF92EF92FF920F9338
:103F40001F93CF93DF93CDB7DEB7CA1BDB0B0FB642
:103F5000F894DEBF0FBECDBF09942A8839884888FF
:103F60005F846E847D848C849B84AA84B984C88495
:103F7000DF80EE80FD800C811B81AA81B981CE0F8C
:103F8000D11D0FB6F894DEBF0FBECDBFED01089571
:103F9000A29FB001B39FC001A39F700D811D11248A
:103FA000911DB29F700D811D1124911D0895991BC3
:103FB00079E004C0991F961708F0961B881F7A9520
:103FC000C9F780950895AA1BBB1B51E107C0AA1F22
:103FD000BB1FA617B70710F0A61BB70B881F991FAA
:103FE0005A95A9F780959095BC01CD01089597FB4E
:103FF000072E16F4009407D077FD09D00E94E31F26
:1040000007FC05D03EF4909581959F4F08957095DB
:1040100061957F4F0895EE0FFF1F0590F491E02DFD
:1040200009940F931F93CF93DF938230910510F47F
:1040300082E090E0E0915F07F091600730E020E0DF
:10404000B0E0A0E0309799F42115310509F44AC099
:10405000281B390B24303105D8F58A819B816115E5
:10406000710589F1FB0193838283FE0111C04081B8
:1040700051810281138148175907E0F04817590709
:1040800099F4109761F012960C93129713961C9363
:104090003296CF01DF91CF911F910F910895009338
:1040A0005F0710936007F4CF2115310551F04217D7
:1040B000530738F0A901DB019A01BD01DF01F801C6
:1040C000C1CFEF01F9CF9093600780935F07CDCF09
:1040D000FE01E20FF31F819391932250310939833E
:1040E0002883D7CF20915D0730915E07232B41F4C1
:1040F000209102013091030130935E0720935D0708
:1041000020910001309101012115310541F42DB7B5
:104110003EB74091040150910501241B350BE091FD
:104120005D07F0915E07E217F307A0F42E1B3F0B2B
:104130002817390778F0AC014E5F5F4F2417350719
:1041400048F04E0F5F1F50935E0740935D078193C9
:1041500091939FCFF0E0E0E09CCFCF93DF93009767
:10416000E9F0FC01329713821282A0915F07B091AF
:104170006007ED0130E020E01097A1F4208131814B
:10418000820F931F20915D0730915E072817390732
:1041900009F061C0F0935E07E0935D07DF91CF9176
:1041A0000895EA01CE17DF07E8F54A815B819E0199
:1041B00041155105B1F7E901FB83EA834991599112
:1041C000C40FD51FEC17FD0761F480819181029621
:1041D000840F951FE90199838883828193819B8352
:1041E0008A83F0E0E0E012968D919C9113970097FE
:1041F000B9F52D913C911197CD010296820F931F35
:1042000020915D0730915E072817390739F63097FE
:1042100051F51092600710925F07B0935E07A0936C
:104220005D07BCCFD383C28340815181840F951F2A
:10423000C817D90761F44E5F5F4F88819981480F95
:10424000591F518340838A819B81938382832115E7
:10425000310509F0B0CFF0936007E0935F079ECF80
:10426000FD01DC01C0CF13821282D7CFFB01DC013C
:1042700004C08D910190801921F441505040C8F73D
:10428000881B990B0895DC0101C06D93415050408B
:10429000E0F70895FC018191861721F08823D9F772
:1042A000992708953197CF010895FB01DC018D9185
:1042B000019080190110D9F3990B0895FB01DC01DD
:1042C00001900D920020E1F70895FB01DC014150BF
:1042D000504030F08D910190801919F40020B9F709
:1042E000881B990B0895FB01DC014150504048F0B8
:1042F00001900D920020C9F701C01D92415050401D
:10430000E0F70895AEE0B0E0E8E8F1E20C949F1F1A
:104310000D891E898F89988D26E02C831A83098345
:1043200097FF02C080E090E801979E838D83AE01E5
:10433000455E5F4F698D7A8DCE0101960E94CB213B
:104340004D815E8157FD0AC02F8138854217530782
:104350000CF49A01020F131FF80110822E96E4E06C
:104360000C94BB1FAEE0B0E0E8EBF1E20C94A11FAF
:1043700085E08C838B899C899A838983AE01495E11
:104380005F4F6D897E89CE0101960E9430252E9661
:10439000E2E00C94BD1FABE0B0E0E1EDF1E20C9483
:1043A000911F7C013B018A01FC01178216828381E7
:1043B00081FFC8C1CE0101965C01F7019381F30131
:1043C00093FD859193FF81913F01882309F453C1A7
:1043D000853239F493FD859193FF81913F018532B8
:1043E00029F4B70190E00E949226E7CF912C212C6E
:1043F000312CFFE1F31538F08B3211F190F480325B
:1044000009F1833229F137FC3CC020ED280F2A3016
:1044100050F536FE20C08AE0989E200D1124922E81
:1044200006C08D3291F0803371F7689430F8F30153
:1044300093FD859193FF81913F018111DACF21C0D6
:10444000689431F8689432F8F2CF689433F8EFCF7B
:10445000689434F8ECCFEAE02E9E200D1124222E31
:10446000689435F8E4CF8E3229F436FC04C16894A0
:1044700036F8DDCF8C3619F4689437F8D8CF883603
:10448000B1F2982F9F7D95549330E0F08336A1F1DF
:104490008337C1F1833509F063C02801F2E04F0E84
:1044A000511CF801C080D180692D70E036FC02C03B
:1044B0006FEF7FEFC6010E9440264C01689437F8E9
:1044C00082010AC00C5F1F4FFFE3F98388248394A5
:1044D000912C6501E89437F833FE2DC0522C8114DD
:1044E000910471F5552009F468CFB70180E290E09E
:1044F0000E9492265A94F6CFF801808189830E5F3C
:104500001F4FE4CF2801F2E04F0E511CF801C0808C
:10451000D180692D70E036FC02C06FEF7FEFC601DD
:104520000E944B264C018201D5CFB70180E290E07A
:104530000E9492262A942814190409F0B0F7CECFCD
:10454000F60137FC859137FE81916F01B70190E04C
:104550000E94922651105A94F1E08F1A9108BFCF11
:10456000843619F0893609F077C0F80137FE6BC040
:1045700060817181828193810C5F1F4FF32DFF76E3
:104580003F2E97FF09C090958095709561957F4F5C
:104590008F4F9F4F689437F82AE030E0A5010E94C2
:1045A000DA26C82ECA188C2C432C36FE0CC0E89490
:1045B00040F8C91440F434FE05C032FC03C0F32DAA
:1045C000FE7E4F2E892C44FE95C0FE01EC0DF11DA0
:1045D0008081803309F087C0242D297E422E842DCE
:1045E0008870582E43FC95C040FE8FC09C2C8214CE
:1045F00018F42C0C922C981844FE91C0B70180E35B
:1046000090E00E94922642FE09C088E790E041FEB9
:1046100002C088E590E0B7010E949226C91408F410
:104620008AC0CA94D12C9FEFC91AD90ACA0CDB1CC4
:10463000F60182916F01B70190E00E949226AC14BE
:10464000BD04B1F74FCF60817181072E000C880B3C
:10465000990B0E5F1F4F92CFD32CE894D4F82AE029
:1046600030E0853739F1232D297FD22E8F3601F1A5
:1046700048F48835A9F0F701868197812B96E2E10D
:104680000C94AD1F803749F08837A9F7D4FE02C0DB
:104690006894D2F820E130E00DC06894D4F8F6CFE9
:1046A00034FE03C0822F8660D82E20E132E002C0A3
:1046B00028E030E0F801D7FE0FC06081718182816F
:1046C00093810C5F1F4FA5010E94DA26C82ECA18DD
:1046D0003D2CE89437F867CF6081718190E080E0ED
:1046E0000E5F1F4FF0CF42FC02C0839478CF8394BB
:1046F000839475CF842D867809F471CFF6CFB701F6
:1047000080E290E00E94922683948214C0F3512CA0
:1047100073CF522C5818821408F46ECFF8CF842D22
:10472000867809F47BCF8BE241FE80E247FC8DE284
:10473000B70190E071CFB70180E390E00E9492262C
:104740009A946CCF8FEF9FEF99CF20FD09C0FC01A9
:1047500023FD05C022FF02C073836283518340831F
:10476000089544FD17C046FD1DC0DB01FC01AA0FE2
:10477000BB1FEE1FFF1F1094D1F76A0F7B1F8E1F08
:104780009F1F660F771F881F991F620F711D811D64
:10479000911D089533E0660F771F881F991F3150D0
:1047A000D1F7F3CF34E0F7CF0F931F93CF93DF937D
:1047B0008C01C8010E945626EC0197FD08C00E949A
:1047C0000C1F892BB1F7B801CE010E94C226CE0181
:1047D000DF91CF911F910F9108958F929F92AF9289
:1047E000BF92EF92FF920F931F93CF93DF938C01B1
:1047F000D62F7A01B22E0E9456269C0133272B32E7
:10480000310529F02D323105A9F46894B7F8D1505B
:1048100061F480E0DF91CF911F910F91FF90EF90B5
:10482000BF90AF909F908F900895C8010E94562628
:1048300097FDEFCFCB2DCD7F2B2D2073F9F4803357
:10484000E9F4AA24AA94AD0E89F0C8010E94562664
:1048500097FD0CC0282F2F7D283561F4C264D250FB
:1048600029F0C8010E94562697FF08C0812C912C80
:1048700054011BC0B6FE2BC0C260DA2D812C912CD6
:10488000540120ED280F283028F1C4FD09C02A303A
:1048900008F1C6FF05C02F7D3FEE320F3630C8F05D
:1048A000B8010E94C226C1FFB4CFC7FF08C0B094B0
:1048B000A09490948094811C911CA11CB11C2C2F5D
:1048C000B501A401C7010E94A52381E0A3CFC26165
:1048D000D4CF27504C2FC501B4010E94B1234B0106
:1048E0005C01C260D15009F3C8010E94562697FFAF
:1048F000C8CFD9CFA0E2B0E0E0E8F4E20C94961F74
:104900005C01962E7A01CE0101966C0180E2F601DF
:1049100011928A95E9F7F501B381890130E020E031
:10492000712C812CA0E041E050E0F801B3FD8591AD
:10493000B3FF8191982F8F01811107C010E000E033
:10494000C801A096EDE00C94B21F8E3519F4211524
:10495000310541F1A21713064CF48D3549F18D3222
:1049600029F4811006C0882483941DC0882009F48E
:1049700064C0E92FE695E695E695EC0DFD2DF11D59
:10498000892F8770BA0101C0660F8A95EAF7808186
:10499000682B6083791651F0971510F49F5FE9CF6B
:1049A0009150E7CFA1E02F5F3F4FBFCF812CFBCFCE
:1049B000882019F08E8180628E83AA2359F0F60137
:1049C0009E012F5D3F4F8081809580833196E21755
:1049D000F307C9F788248394C5010E94562697FDE2
:1049E00016C0E82FE695E695E695EC0DFD2DF11D38
:1049F000208130E0AC014770552702C035952795DE
:104A00004A95E2F720FD06C0B5010E94C226882023
:104A100069F094CFE114F10429F0F7018083C70114
:104A200001967C019A94812C9110D6CFE114F10467
:104A300009F486CFF701108283CFE82FE695E6953B
:104A4000E695EC0DFD2DF11D982F9770BA0101C070
:104A5000660F9A95EAF79081692B6083782EA3CF31
:104A6000B0E0A0E0E6E3F5E20C94941F6C01EB01EA
:104A70005A01FC0117821682512CF601E380FE01D7
:104A8000E3FC8591E3FE8191182FEF018823E9F083
:104A900090E00E940C1F892B21F0C6010E94D423B4
:104AA000ECCF153241F4FE01E3FC1591E3FE1191C8
:104AB000EF01153269F4C6010E94562697FD8EC09B
:104AC0001817D9F2B6010E94C226852D90E08AC03F
:104AD00000E01A3231F4E3FC1591E3FE1191EF018D
:104AE00001E0F12C20ED210F2A3048F101FF37C001
:104AF000FF2059F31836B1F11C3609F43DC01123DB
:104B000021F3612F70E088E690E00E943526892B22
:104B1000E1F2912C812C00FD06C0F501808091808E
:104B2000C50102965C011E3679F5F6014681578172
:104B300070E060E0202FC4010E94A5239ECF026098
:104B40006F2D70E090E080E040E20E94B123F62EED
:104B5000FE01E3FC1591E3FE1191EF01C3CFFF24A9
:104B6000FA94C8CFFE01E3FC1591E3FE1191EF0129
:104B7000183609F0C4CF08600460FE01E3FC15910B
:104B8000E3FE1191EF01BBCF1336C1F401FD02C06A
:104B9000FF24F394C6010E94562697FD1FC081147E
:104BA000910429F0F4018083C40101964C01FA9428
:104BB000F110F0CF00FD61CF53945FCF1B35B9F4F6
:104BC0009E01A4016F2DC6010E947A24EC01892B5D
:104BD00089F7F6018381807309F477CF8FEF9FEF18
:104BE000511073CFCDB7DEB7EFE00C94B01FC60104
:104BF0000E94D42397FDF2CF1F36A9F130F414366A
:104C000041F0193639F0006405C01337B9F0153793
:104C1000D1F70062202FA4016F2DC6010E94ED2361
:104C20008111C8CFD6CF8114910429F0F40160829C
:104C3000C40101964C01FA94FF2071F0C6010E9454
:104C400056263C0197FD08C00E940C1F892B59F382
:104C5000B601C3010E94C2268114910409F4AACFAF
:104C6000F4011082A7CF0061D5CFFC010590061694
:104C700021F00020D9F7C00108953197CF010895A0
:104C8000FC010590615070400110D8F78095909517
:104C90008E0F9F1F0895FC0161507040019001101C
:104CA000D8F7809590958E0F9F1F0895CF93DF932F
:104CB000EC012B8120FF1AC026FF0CC02F7B2B8319
:104CC0008E819F8101969F838E838A8190E0DF9100
:104CD000CF91089522FF18C0E881F9818081082EC4
:104CE000000C990B009729F420622B838FEF9FEF24
:104CF000EECF3196F983E8832E813F812F5F3F4FBE
:104D00003F832E839927E3CFEA85FB85099597FF9B
:104D1000F3CF2B81019621F080E2822B8B83E6CFAB
:104D200080E1FBCF0F931F93CF93DF93182F092FB1
:104D3000EB018B8181FD09C01FEF0FEF812F902FB9
:104D4000DF91CF911F910F91089582FF14C02E81A2
:104D50003F818C819D81281739073CF4E881F981D6
:104D6000CF0101969983888310838E819F8101965C
:104D70009F838E83E3CFE885F985812F0995892B61
:104D8000A1F3DACFFB01238120FF11C026FD0FC064
:104D90008F3F980771F082832F7D206423832681C3
:104DA00037812150310937832683992708958FEF62
:104DB0009FEF0895FA01AA27283051F1203181F19F
:104DC000E8946F936E7F6E5F7F4F8F4F9F4FAF4F13
:104DD000B1E03ED0B4E03CD0670F781F891F9A1F26
:104DE000A11D680F791F8A1F911DA11D6A0F711DDA
:104DF000811D911DA11D20D009F468943F912AE0E6
:104E0000269F11243019305D3193DEF6CF010895CD
:104E1000462F4770405D4193B3E00FD0C9F7F6CFFE
:104E2000462F4F70405D4A3318F0495D31FD4052C6
:104E3000419302D0A9F7EACFB4E0A695979587955C
:104E400077956795BA95C9F700976105710508953B
:104E50009B01AC010A2E06945795479537952795E7
:104E6000BA95C9F7620F731F841F951FA01D08957F
:104E700012E0CFE5D2E004C0FE010E940B20219693
:0A4E8000C036D107C9F7F894FFCF40
:104E8A0000006107800004080C1815A015C019FF5E
:104E9A001815A115C819FF1815AE19FF1815AF195D
:104EAA00FF1815AE15D5168015A8163F15D316008E
:104EBA001540158D16141520160015A115C815DAFA
:104ECA001612158116CF15D916F115DB1640152EB7
:104EDA0015A415A619FF0001140A646432320009E8
:104EEA003D000004289610080202800040000000DD
:104EFA0000008205E2040F05EA0540051E05320599
:104F0A000000000037093C0A650A640A0D0A004DD0
:104F1A004F44554C455F42004F55545055545F4ECF
:104F2A004F44450056322E3000636C6F736564003F
:104F3A006F70656E006E6F726D616C006F666600F1
:104F4A007B226D6F64756C65223A226F7574707579
:104F5A0074222C2274797065223A22737461746502
:104F6A00222C22646F6F72223A222573222C227716
:104F7A00696E646F77223A222573222C2266616E4B
:104F8A00223A25642C226C69676874223A25642CBB
:104F9A002262757A7A6572223A222573227D007618
:104FAA00616C7565006700636F756E74006F6E5F84
:104FBA006D73006F66665F6D7300686F7572006D62
:104FCA00696E757465006C696E6500636F6465006F
:104FDA00646F6F7200636C6F73650077696E646FDC
:104FEA00770066616E007365745F7370656564004F
:104FFA0066756C6C0073746F70006C696768740016
:10500A0077686974650072656400677265656E0029
:10501A00626C75650079656C6C6F7700707572707B
:10502A006C65006379616E007267620062757A7AF4
:10503A006572006265657000646973706C617900FD
:10504A0073686F775F74696D650073686F775F6EF9
:10505A00756D62657200636C656172006F6C656480
:10506A000073686F775F746578740069720073659E
:10507A006E645F6E65630072657065617400636D6E
:10508A006400616374696F6E0074727565006661AD
:10509A006C7365006E756C6C0073797374656D0062
:1050AA00413A005354415455530057484F00444F16
:1050BA004F523A4F50454E00444F4F523A434C4F8D
:1050CA0053450057494E444F573A4F50454E0057A3
:1050DA00494E444F573A434C4F53450057494E4463
:1050EA004F573A4E4F524D414C0046414E3A4F4E61
:1050FA000046414E3A4F46460046414E3A004C4918
:10510A004748543A4F4E004C494748543A57484941
:10511A005445004C494748543A4F4646004C494783
:10512A0048543A524544004C494748543A47524534
:10513A00454E004C494748543A424C5545004C4963
:10514A004748543A59454C4C4F57004C49474854E4
:10515A003A505552504C45004C494748543A4359E5
:10516A00414E004C494748543A5247423A00256456
:10517A002C25642C2564004C494748543A00425572
:10518A005A5A45523A4F4E0042555A5A45523A4F88
:10519A0046460042555A5A45523A424545503A0007
:1051AA0025643A25643A25640054494D453A004F2E
:1051BA004C45443A434C454152004F4C45443A53BE
:1051CA00484F573A0070617273655F6572726F7209
:1051DA00007374617475730077686F00756E6B6E17
:0C51EA006F776E5F636F6D6D616E640027
:00000001FF
